:100000000C9473000C949F000C949F000C949F0020
:100010000C949F000C949F000C949F000C949F00E4
:100020000C949F000C949F000C949F000C949F00D4
:100030000C949F000C949F000C949F000C949F00C4
:100040000C949F000C949F000C949F000C949F00B4
:100050000C949F000C949F000C949F000C942F0212
:100060000C949F000C94D9020C94B9030C949F003B
:100070000C949F000C949F000C949F000C949F0084
:100080000C949F000C949F000C949F000C949F0074
:100090000C9411030C94F8030C949F000C949F0093
:1000A0000C949F000C949F000C949F000C949F0054
:1000B0000C949F000C949F000C949F000C949F0044
:1000C0000C949F000C949F000C949F000C94490387
:1000D0000C9437040C949F000C9481030C947604C8
:1000E0000C949F00460611241FBECFEFD1E2DEBF65
:1000F000CDBF00E00CBF12E0A0E0B2E0E6EEF1E11F
:1001000000E00BBF02C007900D92A23EB107D9F7E5
:1001100015E0A2EEB2E001C01D92A738B107E1F7E9
:1001200010E0C6EED0E004C02297FE010E94ED0868
:10013000C43ED107C9F70E9418020C949B080C9486
:100140000000CF92DF92FF920F931F93CF93DF9324
:100150006C0100E010E0D6C0F601F0800115110539
:1001600091F48F2D992787FD90950E94A008892BE7
:1001700009F0BDC0FFE5FF1609F4B9C080E2F8162A
:1001800009F044C0BCC00130110501F5E0E4FE16E1
:1001900019F402E010E0B3C0CF2DDD27C7FDD095E4
:1001A000CE010E94A008892B09F0A9C0E0972A97E8
:1001B00008F4A5C0FDE2FF1609F4A1C08FE5F8160A
:1001C00009F49DC0EEE2FE1681F599C002301105DA
:1001D00059F48F2D992787FD90950E94A008892BAF
:1001E000E9F103E010E08BC00330110579F48F2DA5
:1001F000992787FD90950E94A008892B09F07FC060
:10020000FEE2FF16C9F504E010E079C004301105E4
:1002100061F48F2D992787FD90950E94A008892B66
:1002200009F43FC005E010E06AC005301105B1F4E3
:100230008F2D992787FD90950E94A008892B09F0A2
:100240005EC08EE2F81619F406E010E058C0E0E255
:10025000FE1609F454C0FF2091F54CC0063011057C
:1002600059F48F2D992787FD90950E94A008892B1E
:10027000A9F107E010E043C00730110591F48F2D7C
:10028000992787FD90950E94A008892BC1F5FEE271
:10029000FF1619F408E010E032C080E2F81621F5EC
:1002A0002EC00830110559F48F2D992787FD9095A0
:1002B0000E94A008892B09F109E010E020C0093054
:1002C000110561F48F2D992787FD90950E94A00854
:1002D000892BA9F4E0E2FE1639F411C00A301105A9
:1002E00061F4F0E2FF1659F0FF2039F403C001E099
:1002F00010E005C00CE010E002C00BE010E0089434
:10030000C11CD11CC8010B97029708F025CF80E0D3
:100310000C30110509F481E0DF91CF911F910F910D
:10032000FF90DF90CF9008950F931F93CF93DF93AB
:10033000EC01162F0E94A100082F811789F18BE094
:1003400095E060E072E00E9488088BE095E066E04E
:1003500072E00E9485088BE095E0BE010E9488084B
:100360008BE095E06DE072E00E9485088BE095E0FF
:10037000612F70E04AE050E00E9466088BE095E053
:100380006EE172E00E9485088BE095E0602F70E0DE
:100390004AE050E00E9466088BE095E00E948E07DC
:1003A000DF91CF911F910F9108950F931F930BE051
:1003B00015E0C80166E272E00E94880882E492E0DB
:1003C00061E00E94940182E592E061E00E94940164
:1003D00083E692E061E00E94940181E792E060E0B0
:1003E0000E94940180E892E061E00E94940184E917
:1003F00092E061E00E94940187EA92E060E00E944E
:10040000940188EA92E060E00E9494018BEA92E015
:1004100060E00E94940182EB92E060E00E9494010F
:10042000C80168EB72E00E9488081F910F9108953F
:100430000F931F930E9477020BE015E0C80140E87C
:1004400055E260E070E00E94B5040E94D501C80149
:100450000E943B0580E090E01F910F9108951F924C
:100460000F920FB60F9211242F933F938F939F9368
:10047000AF93BF938091E6029091E702A091E802CA
:10048000B091E9023091EA020196A11DB11D232F1E
:100490002D5F2D3720F02D570196A11DB11D209302
:1004A000EA028093E6029093E702A093E802B093F9
:1004B000E9028091E2029091E302A091E402B091FE
:1004C000E5020196A11DB11D8093E2029093E30223
:1004D000A093E402B093E502BF91AF919F918F91F9
:1004E0003F912F910F900FBE0F901F901895789409
:1004F00084B5826084BD84B5816084BD85B5826029
:1005000085BD85B5816085BDEEE6F0E080818160C6
:100510008083E1E8F0E010828081826080838081C6
:1005200081608083E0E8F0E0808181608083E1EB9E
:10053000F0E0808184608083E0EBF0E08081816086
:100540008083E1E9F0E08081826080838081816046
:100550008083E0E9F0E0808181608083E1EAF0E07F
:10056000808182608083808181608083E0EAF0E026
:10057000808181608083E1E2F1E08081826080831C
:10058000808181608083E0E2F1E08081816080830E
:10059000EAE7F0E0808184608083808182608083EC
:1005A0008081816080838081806880831092C10017
:1005B00008951F920F920FB60F920BB60F9211244F
:1005C0002F933F934F938F939F93EF93FF9340917C
:1005D000C60020912B0330912C032F5F3F4F2F73C8
:1005E000307080912D0390912E032817390759F010
:1005F000E0912B03F0912C03E551FD4F40833093A4
:100600002C0320932B03FF91EF919F918F914F919A
:100610003F912F910F900BBE0F900FBE0F901F9028
:1006200018951F920F920FB60F920BB60F921124CE
:100630002F933F934F938F939F93EF93FF9340910B
:10064000CE002091B3033091B4032F5F3F4F2F733F
:1006500030708091B5039091B6032817390759F08F
:10066000E091B303F091B403ED58FC4F4083309315
:10067000B4032093B303FF91EF919F918F914F911A
:100680003F912F910F900BBE0F900FBE0F901F90B8
:1006900018951F920F920FB60F920BB60F9211245E
:1006A0002F933F934F938F939F93EF93FF9340919B
:1006B000D60020913B0430913C042F5F3F4F2F73B5
:1006C000307080913D0490913E042817390759F00D
:1006D000E0913B04F0913C04E550FC4F40833093A3
:1006E0003C0420933B04FF91EF919F918F914F9198
:1006F0003F912F910F900BBE0F900FBE0F901F9048
:1007000018951F920F920FB60F920BB60F921124ED
:100710002F933F934F938F939F93EF93FF9340912A
:1007200036012091C3043091C4042F5F3F4F2F73D3
:1007300030708091C5049091C6042817390759F08C
:10074000E091C304F091C404ED57FB4F4083309314
:10075000C4042093C304FF91EF919F918F914F9117
:100760003F912F910F900BBE0F900FBE0F901F90D7
:1007700018951F920F920FB60F920BB60F9211247D
:100780002F933F938F939F93EF93FF9320916F034A
:10079000309170038091710390917203281739078B
:1007A00031F48091C1008F7D8093C10014C0E0912D
:1007B0007103F0917203E15DFC4F20818091710320
:1007C0009091720301968F7390709093720380934F
:1007D00071032093C600FF91EF919F918F913F91FC
:1007E0002F910F900BBE0F900FBE0F901F9018957A
:1007F0001F920F920FB60F920BB60F9211242F93E8
:100800003F938F939F93EF93FF932091F703309142
:10081000F8038091F9039091FA032817390731F40E
:100820008091C9008F7D8093C90014C0E091F903C5
:10083000F091FA03E954FC4F20818091F9039091E3
:10084000FA0301968F7390709093FA038093F903E3
:100850002093CE00FF91EF919F918F913F912F9127
:100860000F900BBE0F900FBE0F901F9018951F9208
:100870000F920FB60F920BB60F9211242F933F9346
:100880008F939F93EF93FF9320917F043091800487
:1008900080918104909182042817390731F4809166
:1008A000D1008F7D8093D10014C0E0918104F0913C
:1008B0008204E15CFB4F208180918104909182044D
:1008C00001968F739070909382048093810420939B
:1008D000D600FF91EF919F918F913F912F910F90B3
:1008E0000BBE0F900FBE0F901F9018951F920F9286
:1008F0000FB60F920BB60F9211242F933F938F9345
:100900009F93EF93FF932091070530910805809105
:10091000090590910A052817390731F480913101B2
:100920008F7D8093310114C0E0910905F0910A0593
:10093000E953FB4F20818091090590910A050196AA
:100940008F73907090930A05809309052093360168
:10095000FF91EF919F918F913F912F910F900BBE3F
:100960000F900FBE0F901F901895AF92BF92DF921D
:10097000EF92FF920F931F93CF93DF93EC017A01D5
:100980008B01DD24403081EE580780E0680780E06D
:10099000780711F0DD24D39491E0A92EB12CEC89D5
:1009A000FD89DD2069F0C5010E8C02C0880F991FFA
:1009B0000A94E2F7808360E079E08DE390E005C07F
:1009C000108260E874E88EE190E0A80197010E942F
:1009D000C9082150304040405040569547953795C2
:1009E000279580E12030380720F0DD2011F0DD244C
:1009F000D6CFE889F9893083EA89FB892083EE899B
:100A0000FF89408121E030E0C9010A8C02C0880FD3
:100A1000991F0A94E2F7482B4083EE89FF894081B1
:100A2000C9010B8C02C0880F991F0A94E2F7482B6A
:100A30004083EE89FF894081C9010C8C02C0880F78
:100A4000991F0A94E2F7482B4083EE89FF89808141
:100A50000D8C02C0220F331F0A94E2F72095282341
:100A60002083DF91CF911F910F91FF90EF90DF9046
:100A7000BF90AF900895CF93DF93DC011E968D91C8
:100A80009C911F97EC01C05CDF4FFC01EE5BFF4FB8
:100A9000288139818081918128173907C9F75696B5
:100AA000ED91FC915797408121E030E0C9015A96C1
:100AB0000C905A9702C0880F991F0A94E2F780950C
:100AC000842380835696ED91FC9157974081C9010C
:100AD0005B960C905B9702C0880F991F0A94E2F70F
:100AE0008095842380835696ED91FC9157974081A1
:100AF000C9015C960C905C9702C0880F991F0A94FC
:100B0000E2F78095842380835696ED91FC91579768
:100B100080815D960C905D9702C0220F331F0A946E
:100B2000E2F72095282320831C96ED91FC911D97D8
:100B3000EE5BFF4F8081918192938293DF91CF9101
:100B40000895DC011C96ED91FC911D97E05CFF4F30
:100B50002191319180819181281B390B2F73307045
:100B6000C9010895DC011C96ED91FC911D97E05C94
:100B7000FF4F20813181E054F040DF01AE5BBF4F79
:100B80008D919C9111972817390719F42FEF3FEF9A
:100B900007C08D919C91E80FF91F8081282F30E0CC
:100BA000C9010895DC011C96ED91FC911D97E05C54
:100BB000FF4F20813181E054F040DF01AE5BBF4F39
:100BC0008D919C9111972817390719F42FEF3FEF5A
:100BD00010C08D919C911197E80FF91F20818D9184
:100BE0009C91119701968F73907011969C938E93A0
:100BF00030E0C9010895FC0186859785DC01A05C81
:100C0000BF4FFC01EE5BFF4F2D913C91119780810E
:100C1000918128173907C1F70895CF93DF93EC012D
:100C2000EE85FF85E05CFF4F20813181E054F0408C
:100C30002F5F3F4F2F733070DF01AE5BBF4F8D9141
:100C40009C91119728173907D1F3E05CFF4F808101
:100C50009181E054F040E80FF91F6083EE85FF8535
:100C6000E05CFF4F31832083EE89FF89208181E0A2
:100C700090E00D8C02C0880F991F0A94E2F7282B90
:100C8000208381E090E0DF91CF9108951F9310922F
:100C90000E0510920D0528EE33E040E050E0209361
:100CA0000F0530931005409311055093120566ED22
:100CB00072E070930C0560930B058BEE92E09093BD
:100CC0001805809317058FE293E090931A0580939F
:100CD000190585EC90E090931C0580931B0584EC2E
:100CE00090E090931E0580931D0580EC90E090931A
:100CF000200580931F0581EC90E09093220580935E
:100D0000210586EC90E0909324058093230514E060
:100D100010932505B3E0B0932605A7E0A09327051F
:100D2000F5E0F0932805E1E0E093290510922D0508
:100D300010922C0520932E0530932F0540933005FB
:100D40005093310570932B0560932A0583E793E058
:100D5000909337058093360587EB93E090933905A0
:100D6000809338058DEC90E090933B0580933A0595
:100D70008CEC90E090933D0580933C0588EC90E0EE
:100D800090933F0580933E0589EC90E09093410558
:100D9000809340058EEC90E090934305809342054C
:100DA00010934405B0934505A0934605F09347057D
:100DB000E093480510924C0510924B0520934D0589
:100DC00030934E0540934F055093500570934A055C
:100DD000609349058BEF93E09093560580935505FA
:100DE0008FE394E0909358058093570585ED90E04C
:100DF00090935A058093590584ED90E090935C059B
:100E000080935B0580ED90E090935E0580935D0597
:100E100081ED90E09093600580935F0586ED90E012
:100E2000909362058093610510936305B093640508
:100E3000A0936505F0936605E093670510926B0536
:100E400010926A0520936C0530936D0540936E05F2
:100E500050936F05709369056093680583E894E08B
:100E6000909375058093740587EC94E090937705D3
:100E70008093760585E391E09093790580937805DA
:100E800084E391E090937B0580937A0580E391E081
:100E900090937D0580937C0581E391E090937F059D
:100EA00080937E0586E391E0909381058093800591
:100EB00010938205B0938305A0938405F093850574
:100EC000E09386051F910895CF92DF92EF92FF92F3
:100ED0000F931F93CF93DF937C016B018A01C0E0D6
:100EE000D0E00FC0D6016D916D01D701ED91FC915D
:100EF0000190F081E02DC7011995C80FD91F01504D
:100F000010400115110571F7CE01DF91CF911F91AE
:100F10000F91FF90EF90DF90CF900895EF92FF92A6
:100F20000F931F938C01DC01ED91FC910190F081F6
:100F3000E02D6DE019957C01D801ED91FC910190B7
:100F4000F081E02DC8016AE019959C012E0D3F1D2E
:100F5000C9011F910F91FF90EF900895CF93DF93F8
:100F6000DB010D900020E9F71197A61BB70BEC01F0
:100F7000E881F9810280F381E02DAD011995DF91BF
:100F8000CF9108954F925F927F928F929F92AF92EE
:100F9000BF92CF92DF92EF92FF920F931F93DF9356
:100FA000CF93CDB7DEB7A1970FB6F894DEBF0FBED3
:100FB000CDBF2C01742ECB01223008F42AE019A2F7
:100FC00031E2C32ED12CCC0EDD1E822E9924AA2410
:100FD000BB24672D752FA50194010E94C9087901D2
:100FE0008A01C801B701A50194010E94AA08472DF2
:100FF000461B0894C108D1084A3014F4405D01C072
:10100000495CF6014083E114F1040105110521F06A
:101010007E2C5F2DC801DDCFC201B6010E94AE0754
:10102000A1960FB6F894DEBF0FBECDBFCF91DF9172
:101030001F910F91FF90EF90DF90CF90BF90AF90F6
:101040009F908F907F905F904F900895CF92DF9206
:10105000EF92FF920F931F93CF93DF93EC016A01FE
:101060007B012115310541F4E881F9810190F0817E
:10107000E02D642F19951FC02A303105D1F477FF78
:1010800017C0E881F9810190F081E02D6DE219959A
:101090008C0144275527BA014C195D096E097F0957
:1010A000CE012AE00E94C2079801280F391F04C010
:1010B0002AE00E94C2079C01C901DF91CF911F91D4
:1010C0000F91FF90EF90DF90CF900895CF92DF9235
:1010D000EF92FF920F931F936C017B019A010027FF
:1010E000F7FC0095102FB801A7010E9426088C017B
:1010F000C6010E948E07080F191FC8011F910F918A
:10110000FF90EF90DF90CF9008950E94AE07089572
:10111000EF92FF920F931F937C010E94AE078C0108
:10112000C7010E948E07080F191FC8011F910F9158
:10113000FF90EF900895F8940C94F10885FD07C096
:101140008062911104C081568A51E0F70895992771
:1011500088270895629FD001739FF001829FE00D60
:10116000F11D649FE00DF11D929FF00D839FF00D26
:10117000749FF00D659FF00D9927729FB00DE11DD2
:10118000F91F639FB00DE11DF91FBD01CF011124AF
:101190000895A1E21A2EAA1BBB1BFD010DC0AA1FB8
:1011A000BB1FEE1FFF1FA217B307E407F50720F0D0
:1011B000A21BB30BE40BF50B661F771F881F991F4B
:1011C0001A9469F760957095809590959B01AC0194
:1011D000BD01CF010895EE0FFF1F0590F491E02DA2
:0611E0001994F894FFCF02
:1011E6004641494C2100496E7075743A0045787045
:1011F600656374656420726573756C743A00526534
:1012060073756C743A0054657374696E67206973FC
:1012160056616C6964454D41494C20737461727422
:101226007300797A364075616C62657274612E63FB
:1012360061005F797A364075616C62657274612E01
:101246006361005F4075616C62657274612E6361F3
:10125600005F4075616C62657274612E2E63610079
:10126600797A364075616C62657274612E636120AD
:1012760020202000202020797A364075616C626536
:101286007274612E636100002040005F405F2E6330
:1012960061005F405F63610054657374696E672027
:1012A600697356616C6964454D41494C20656E64AD
:1012B6007300000000000D066407A105D205B20503
:0212C600FB0526
:00000001FF
